{
	"contracts/HotelRoom.sol": {
		"HotelRoom": {
			"abi": [
				{
					"inputs": [],
					"stateMutability": "nonpayable",
					"type": "constructor"
				},
				{
					"anonymous": false,
					"inputs": [
						{
							"indexed": false,
							"internalType": "address",
							"name": "_occupant",
							"type": "address"
						},
						{
							"indexed": false,
							"internalType": "uint256",
							"name": "_value",
							"type": "uint256"
						}
					],
					"name": "Occupy",
					"type": "event"
				},
				{
					"inputs": [],
					"name": "book",
					"outputs": [],
					"stateMutability": "payable",
					"type": "function"
				}
			],
			"devdoc": {
				"kind": "dev",
				"methods": {},
				"version": 1
			},
			"evm": {
				"assembly": "    /* \"contracts/HotelRoom.sol\":57:1821  contract HotelRoom{... */\n  mstore(0x40, 0x80)\n    /* \"contracts/HotelRoom.sol\":312:410  constructor(){... */\n  callvalue\n  dup1\n  iszero\n  tag_1\n  jumpi\n  0x00\n  dup1\n  revert\ntag_1:\n  pop\n    /* \"contracts/HotelRoom.sol\":351:361  msg.sender */\n  caller\n    /* \"contracts/HotelRoom.sol\":335:340  owner */\n  0x00\n  dup1\n    /* \"contracts/HotelRoom.sol\":335:362  owner = payable(msg.sender) */\n  0x0100\n  exp\n  dup2\n  sload\n  dup2\n  0xffffffffffffffffffffffffffffffffffffffff\n  mul\n  not\n  and\n  swap1\n  dup4\n  0xffffffffffffffffffffffffffffffffffffffff\n  and\n  mul\n  or\n  swap1\n  sstore\n  pop\n    /* \"contracts/HotelRoom.sol\":388:403  Statuses.Vacant */\n  0x00\n    /* \"contracts/HotelRoom.sol\":372:385  currentStatus */\n  dup1\n  0x14\n    /* \"contracts/HotelRoom.sol\":372:403  currentStatus = Statuses.Vacant */\n  0x0100\n  exp\n  dup2\n  sload\n  dup2\n  0xff\n  mul\n  not\n  and\n  swap1\n  dup4\n  0x01\n  dup2\n  gt\n  iszero\n  tag_4\n  jumpi\n  tag_5\n  tag_6\n  jump\t// in\ntag_5:\ntag_4:\n  mul\n  or\n  swap1\n  sstore\n  pop\n    /* \"contracts/HotelRoom.sol\":57:1821  contract HotelRoom{... */\n  jump(tag_7)\n    /* \"#utility.yul\":7:187   */\ntag_6:\n    /* \"#utility.yul\":55:132   */\n  0x4e487b7100000000000000000000000000000000000000000000000000000000\n    /* \"#utility.yul\":52:53   */\n  0x00\n    /* \"#utility.yul\":45:133   */\n  mstore\n    /* \"#utility.yul\":152:156   */\n  0x21\n    /* \"#utility.yul\":149:150   */\n  0x04\n    /* \"#utility.yul\":142:157   */\n  mstore\n    /* \"#utility.yul\":176:180   */\n  0x24\n    /* \"#utility.yul\":173:174   */\n  0x00\n    /* \"#utility.yul\":166:181   */\n  revert\n    /* \"contracts/HotelRoom.sol\":57:1821  contract HotelRoom{... */\ntag_7:\n  dataSize(sub_0)\n  dup1\n  dataOffset(sub_0)\n  0x00\n  codecopy\n  0x00\n  return\nstop\n\nsub_0: assembly {\n        /* \"contracts/HotelRoom.sol\":57:1821  contract HotelRoom{... */\n      mstore(0x40, 0x80)\n      jumpi(tag_1, lt(calldatasize, 0x04))\n      shr(0xe0, calldataload(0x00))\n      dup1\n      0x05a8da72\n      eq\n      tag_2\n      jumpi\n    tag_1:\n      0x00\n      dup1\n      revert\n        /* \"contracts/HotelRoom.sol\":1479:1819  function book() payable public onlyWhileVacant costs(2 ether){... */\n    tag_2:\n      tag_3\n      tag_4\n      jump\t// in\n    tag_3:\n      stop\n    tag_4:\n        /* \"contracts/HotelRoom.sol\":887:902  Statuses.Vacant */\n      0x00\n        /* \"contracts/HotelRoom.sol\":870:902  currentStatus == Statuses.Vacant */\n      0x01\n      dup2\n      gt\n      iszero\n      tag_6\n      jumpi\n      tag_7\n      tag_8\n      jump\t// in\n    tag_7:\n    tag_6:\n        /* \"contracts/HotelRoom.sol\":870:883  currentStatus */\n      0x00\n      0x14\n      swap1\n      sload\n      swap1\n      0x0100\n      exp\n      swap1\n      div\n      0xff\n      and\n        /* \"contracts/HotelRoom.sol\":870:902  currentStatus == Statuses.Vacant */\n      0x01\n      dup2\n      gt\n      iszero\n      tag_9\n      jumpi\n      tag_10\n      tag_8\n      jump\t// in\n    tag_10:\n    tag_9:\n      eq\n        /* \"contracts/HotelRoom.sol\":862:925  require(currentStatus == Statuses.Vacant, \"Currently Occupied\") */\n      tag_11\n      jumpi\n      mload(0x40)\n      0x08c379a000000000000000000000000000000000000000000000000000000000\n      dup2\n      mstore\n      0x04\n      add\n      tag_12\n      swap1\n      tag_13\n      jump\t// in\n    tag_12:\n      mload(0x40)\n      dup1\n      swap2\n      sub\n      swap1\n      revert\n    tag_11:\n        /* \"contracts/HotelRoom.sol\":1532:1539  2 ether */\n      0x1bc16d674ec80000\n        /* \"contracts/HotelRoom.sol\":1008:1015  _amount */\n      dup1\n        /* \"contracts/HotelRoom.sol\":995:1004  msg.value */\n      callvalue\n        /* \"contracts/HotelRoom.sol\":995:1015  msg.value >= _amount */\n      lt\n      iszero\n        /* \"contracts/HotelRoom.sol\":987:1045  require(msg.value >= _amount, \"not enough ether provided\") */\n      tag_15\n      jumpi\n      mload(0x40)\n      0x08c379a000000000000000000000000000000000000000000000000000000000\n      dup2\n      mstore\n      0x04\n      add\n      tag_16\n      swap1\n      tag_17\n      jump\t// in\n    tag_16:\n      mload(0x40)\n      dup1\n      swap2\n      sub\n      swap1\n      revert\n    tag_15:\n        /* \"contracts/HotelRoom.sol\":1614:1631  Statuses.Occupied */\n      0x01\n        /* \"contracts/HotelRoom.sol\":1598:1611  currentStatus */\n      0x00\n      0x14\n        /* \"contracts/HotelRoom.sol\":1598:1631  currentStatus = Statuses.Occupied */\n      0x0100\n      exp\n      dup2\n      sload\n      dup2\n      0xff\n      mul\n      not\n      and\n      swap1\n      dup4\n      0x01\n      dup2\n      gt\n      iszero\n      tag_19\n      jumpi\n      tag_20\n      tag_8\n      jump\t// in\n    tag_20:\n    tag_19:\n      mul\n      or\n      swap1\n      sstore\n      pop\n        /* \"contracts/HotelRoom.sol\":1680:1689  bool sent */\n      0x00\n        /* \"contracts/HotelRoom.sol\":1691:1708  bytes memory data */\n      dup1\n        /* \"contracts/HotelRoom.sol\":1712:1717  owner */\n      0x00\n      dup1\n      sload\n      swap1\n      0x0100\n      exp\n      swap1\n      div\n      0xffffffffffffffffffffffffffffffffffffffff\n      and\n        /* \"contracts/HotelRoom.sol\":1712:1722  owner.call */\n      0xffffffffffffffffffffffffffffffffffffffff\n      and\n        /* \"contracts/HotelRoom.sol\":1731:1740  msg.value */\n      callvalue\n        /* \"contracts/HotelRoom.sol\":1712:1745  owner.call{value : msg.value}(\"\") */\n      mload(0x40)\n      tag_21\n      swap1\n      tag_22\n      jump\t// in\n    tag_21:\n      0x00\n      mload(0x40)\n      dup1\n      dup4\n      sub\n      dup2\n      dup6\n      dup8\n      gas\n      call\n      swap3\n      pop\n      pop\n      pop\n      returndatasize\n      dup1\n      0x00\n      dup2\n      eq\n      tag_25\n      jumpi\n      mload(0x40)\n      swap2\n      pop\n      and(add(returndatasize, 0x3f), not(0x1f))\n      dup3\n      add\n      0x40\n      mstore\n      returndatasize\n      dup3\n      mstore\n      returndatasize\n      0x00\n      0x20\n      dup5\n      add\n      returndatacopy\n      jump(tag_24)\n    tag_25:\n      0x60\n      swap2\n      pop\n    tag_24:\n      pop\n        /* \"contracts/HotelRoom.sol\":1679:1745  (bool sent, bytes memory data) = owner.call{value : msg.value}(\"\") */\n      swap2\n      pop\n      swap2\n      pop\n        /* \"contracts/HotelRoom.sol\":1763:1767  true */\n      0x01\n        /* \"contracts/HotelRoom.sol\":1755:1768  require(true) */\n      tag_26\n      jumpi\n      0x00\n      dup1\n      revert\n    tag_26:\n        /* \"contracts/HotelRoom.sol\":1783:1812  Occupy(msg.sender, msg.value) */\n      0xba951166d42eb077151bdecb7cf6027562f04f0143b0c141b1bb0a33eef5d693\n        /* \"contracts/HotelRoom.sol\":1790:1800  msg.sender */\n      caller\n        /* \"contracts/HotelRoom.sol\":1802:1811  msg.value */\n      callvalue\n        /* \"contracts/HotelRoom.sol\":1783:1812  Occupy(msg.sender, msg.value) */\n      mload(0x40)\n      tag_27\n      swap3\n      swap2\n      swap1\n      tag_28\n      jump\t// in\n    tag_27:\n      mload(0x40)\n      dup1\n      swap2\n      sub\n      swap1\n      log1\n        /* \"contracts/HotelRoom.sol\":1540:1819  {... */\n      pop\n      pop\n        /* \"contracts/HotelRoom.sol\":935:936  _ */\n      pop\n        /* \"contracts/HotelRoom.sol\":1479:1819  function book() payable public onlyWhileVacant costs(2 ether){... */\n      jump\t// out\n        /* \"#utility.yul\":7:187   */\n    tag_8:\n        /* \"#utility.yul\":55:132   */\n      0x4e487b7100000000000000000000000000000000000000000000000000000000\n        /* \"#utility.yul\":52:53   */\n      0x00\n        /* \"#utility.yul\":45:133   */\n      mstore\n        /* \"#utility.yul\":152:156   */\n      0x21\n        /* \"#utility.yul\":149:150   */\n      0x04\n        /* \"#utility.yul\":142:157   */\n      mstore\n        /* \"#utility.yul\":176:180   */\n      0x24\n        /* \"#utility.yul\":173:174   */\n      0x00\n        /* \"#utility.yul\":166:181   */\n      revert\n        /* \"#utility.yul\":193:362   */\n    tag_29:\n        /* \"#utility.yul\":277:288   */\n      0x00\n        /* \"#utility.yul\":311:317   */\n      dup3\n        /* \"#utility.yul\":306:309   */\n      dup3\n        /* \"#utility.yul\":299:318   */\n      mstore\n        /* \"#utility.yul\":351:355   */\n      0x20\n        /* \"#utility.yul\":346:349   */\n      dup3\n        /* \"#utility.yul\":342:356   */\n      add\n        /* \"#utility.yul\":327:356   */\n      swap1\n      pop\n        /* \"#utility.yul\":193:362   */\n      swap3\n      swap2\n      pop\n      pop\n      jump\t// out\n        /* \"#utility.yul\":368:536   */\n    tag_30:\n        /* \"#utility.yul\":508:528   */\n      0x43757272656e746c79204f636375706965640000000000000000000000000000\n        /* \"#utility.yul\":504:505   */\n      0x00\n        /* \"#utility.yul\":496:502   */\n      dup3\n        /* \"#utility.yul\":492:506   */\n      add\n        /* \"#utility.yul\":485:529   */\n      mstore\n        /* \"#utility.yul\":368:536   */\n      pop\n      jump\t// out\n        /* \"#utility.yul\":542:908   */\n    tag_31:\n        /* \"#utility.yul\":684:687   */\n      0x00\n        /* \"#utility.yul\":705:772   */\n      tag_47\n        /* \"#utility.yul\":769:771   */\n      0x12\n        /* \"#utility.yul\":764:767   */\n      dup4\n        /* \"#utility.yul\":705:772   */\n      tag_29\n      jump\t// in\n    tag_47:\n        /* \"#utility.yul\":698:772   */\n      swap2\n      pop\n        /* \"#utility.yul\":781:874   */\n      tag_48\n        /* \"#utility.yul\":870:873   */\n      dup3\n        /* \"#utility.yul\":781:874   */\n      tag_30\n      jump\t// in\n    tag_48:\n        /* \"#utility.yul\":899:901   */\n      0x20\n        /* \"#utility.yul\":894:897   */\n      dup3\n        /* \"#utility.yul\":890:902   */\n      add\n        /* \"#utility.yul\":883:902   */\n      swap1\n      pop\n        /* \"#utility.yul\":542:908   */\n      swap2\n      swap1\n      pop\n      jump\t// out\n        /* \"#utility.yul\":914:1333   */\n    tag_13:\n        /* \"#utility.yul\":1080:1084   */\n      0x00\n        /* \"#utility.yul\":1118:1120   */\n      0x20\n        /* \"#utility.yul\":1107:1116   */\n      dup3\n        /* \"#utility.yul\":1103:1121   */\n      add\n        /* \"#utility.yul\":1095:1121   */\n      swap1\n      pop\n        /* \"#utility.yul\":1167:1176   */\n      dup2\n        /* \"#utility.yul\":1161:1165   */\n      dup2\n        /* \"#utility.yul\":1157:1177   */\n      sub\n        /* \"#utility.yul\":1153:1154   */\n      0x00\n        /* \"#utility.yul\":1142:1151   */\n      dup4\n        /* \"#utility.yul\":1138:1155   */\n      add\n        /* \"#utility.yul\":1131:1178   */\n      mstore\n        /* \"#utility.yul\":1195:1326   */\n      tag_50\n        /* \"#utility.yul\":1321:1325   */\n      dup2\n        /* \"#utility.yul\":1195:1326   */\n      tag_31\n      jump\t// in\n    tag_50:\n        /* \"#utility.yul\":1187:1326   */\n      swap1\n      pop\n        /* \"#utility.yul\":914:1333   */\n      swap2\n      swap1\n      pop\n      jump\t// out\n        /* \"#utility.yul\":1339:1514   */\n    tag_32:\n        /* \"#utility.yul\":1479:1506   */\n      0x6e6f7420656e6f7567682065746865722070726f766964656400000000000000\n        /* \"#utility.yul\":1475:1476   */\n      0x00\n        /* \"#utility.yul\":1467:1473   */\n      dup3\n        /* \"#utility.yul\":1463:1477   */\n      add\n        /* \"#utility.yul\":1456:1507   */\n      mstore\n        /* \"#utility.yul\":1339:1514   */\n      pop\n      jump\t// out\n        /* \"#utility.yul\":1520:1886   */\n    tag_33:\n        /* \"#utility.yul\":1662:1665   */\n      0x00\n        /* \"#utility.yul\":1683:1750   */\n      tag_53\n        /* \"#utility.yul\":1747:1749   */\n      0x19\n        /* \"#utility.yul\":1742:1745   */\n      dup4\n        /* \"#utility.yul\":1683:1750   */\n      tag_29\n      jump\t// in\n    tag_53:\n        /* \"#utility.yul\":1676:1750   */\n      swap2\n      pop\n        /* \"#utility.yul\":1759:1852   */\n      tag_54\n        /* \"#utility.yul\":1848:1851   */\n      dup3\n        /* \"#utility.yul\":1759:1852   */\n      tag_32\n      jump\t// in\n    tag_54:\n        /* \"#utility.yul\":1877:1879   */\n      0x20\n        /* \"#utility.yul\":1872:1875   */\n      dup3\n        /* \"#utility.yul\":1868:1880   */\n      add\n        /* \"#utility.yul\":1861:1880   */\n      swap1\n      pop\n        /* \"#utility.yul\":1520:1886   */\n      swap2\n      swap1\n      pop\n      jump\t// out\n        /* \"#utility.yul\":1892:2311   */\n    tag_17:\n        /* \"#utility.yul\":2058:2062   */\n      0x00\n        /* \"#utility.yul\":2096:2098   */\n      0x20\n        /* \"#utility.yul\":2085:2094   */\n      dup3\n        /* \"#utility.yul\":2081:2099   */\n      add\n        /* \"#utility.yul\":2073:2099   */\n      swap1\n      pop\n        /* \"#utility.yul\":2145:2154   */\n      dup2\n        /* \"#utility.yul\":2139:2143   */\n      dup2\n        /* \"#utility.yul\":2135:2155   */\n      sub\n        /* \"#utility.yul\":2131:2132   */\n      0x00\n        /* \"#utility.yul\":2120:2129   */\n      dup4\n        /* \"#utility.yul\":2116:2133   */\n      add\n        /* \"#utility.yul\":2109:2156   */\n      mstore\n        /* \"#utility.yul\":2173:2304   */\n      tag_56\n        /* \"#utility.yul\":2299:2303   */\n      dup2\n        /* \"#utility.yul\":2173:2304   */\n      tag_33\n      jump\t// in\n    tag_56:\n        /* \"#utility.yul\":2165:2304   */\n      swap1\n      pop\n        /* \"#utility.yul\":1892:2311   */\n      swap2\n      swap1\n      pop\n      jump\t// out\n        /* \"#utility.yul\":2317:2464   */\n    tag_34:\n        /* \"#utility.yul\":2418:2429   */\n      0x00\n        /* \"#utility.yul\":2455:2458   */\n      dup2\n        /* \"#utility.yul\":2440:2458   */\n      swap1\n      pop\n        /* \"#utility.yul\":2317:2464   */\n      swap3\n      swap2\n      pop\n      pop\n      jump\t// out\n        /* \"#utility.yul\":2470:2584   */\n    tag_35:\n      pop\n      jump\t// out\n        /* \"#utility.yul\":2590:2988   */\n    tag_36:\n        /* \"#utility.yul\":2749:2752   */\n      0x00\n        /* \"#utility.yul\":2770:2853   */\n      tag_60\n        /* \"#utility.yul\":2851:2852   */\n      0x00\n        /* \"#utility.yul\":2846:2849   */\n      dup4\n        /* \"#utility.yul\":2770:2853   */\n      tag_34\n      jump\t// in\n    tag_60:\n        /* \"#utility.yul\":2763:2853   */\n      swap2\n      pop\n        /* \"#utility.yul\":2862:2955   */\n      tag_61\n        /* \"#utility.yul\":2951:2954   */\n      dup3\n        /* \"#utility.yul\":2862:2955   */\n      tag_35\n      jump\t// in\n    tag_61:\n        /* \"#utility.yul\":2980:2981   */\n      0x00\n        /* \"#utility.yul\":2975:2978   */\n      dup3\n        /* \"#utility.yul\":2971:2982   */\n      add\n        /* \"#utility.yul\":2964:2982   */\n      swap1\n      pop\n        /* \"#utility.yul\":2590:2988   */\n      swap2\n      swap1\n      pop\n      jump\t// out\n        /* \"#utility.yul\":2994:3373   */\n    tag_22:\n        /* \"#utility.yul\":3178:3181   */\n      0x00\n        /* \"#utility.yul\":3200:3347   */\n      tag_63\n        /* \"#utility.yul\":3343:3346   */\n      dup3\n        /* \"#utility.yul\":3200:3347   */\n      tag_36\n      jump\t// in\n    tag_63:\n        /* \"#utility.yul\":3193:3347   */\n      swap2\n      pop\n        /* \"#utility.yul\":3364:3367   */\n      dup2\n        /* \"#utility.yul\":3357:3367   */\n      swap1\n      pop\n        /* \"#utility.yul\":2994:3373   */\n      swap2\n      swap1\n      pop\n      jump\t// out\n        /* \"#utility.yul\":3379:3505   */\n    tag_37:\n        /* \"#utility.yul\":3416:3423   */\n      0x00\n        /* \"#utility.yul\":3456:3498   */\n      0xffffffffffffffffffffffffffffffffffffffff\n        /* \"#utility.yul\":3449:3454   */\n      dup3\n        /* \"#utility.yul\":3445:3499   */\n      and\n        /* \"#utility.yul\":3434:3499   */\n      swap1\n      pop\n        /* \"#utility.yul\":3379:3505   */\n      swap2\n      swap1\n      pop\n      jump\t// out\n        /* \"#utility.yul\":3511:3607   */\n    tag_38:\n        /* \"#utility.yul\":3548:3555   */\n      0x00\n        /* \"#utility.yul\":3577:3601   */\n      tag_66\n        /* \"#utility.yul\":3595:3600   */\n      dup3\n        /* \"#utility.yul\":3577:3601   */\n      tag_37\n      jump\t// in\n    tag_66:\n        /* \"#utility.yul\":3566:3601   */\n      swap1\n      pop\n        /* \"#utility.yul\":3511:3607   */\n      swap2\n      swap1\n      pop\n      jump\t// out\n        /* \"#utility.yul\":3613:3731   */\n    tag_39:\n        /* \"#utility.yul\":3700:3724   */\n      tag_68\n        /* \"#utility.yul\":3718:3723   */\n      dup2\n        /* \"#utility.yul\":3700:3724   */\n      tag_38\n      jump\t// in\n    tag_68:\n        /* \"#utility.yul\":3695:3698   */\n      dup3\n        /* \"#utility.yul\":3688:3725   */\n      mstore\n        /* \"#utility.yul\":3613:3731   */\n      pop\n      pop\n      jump\t// out\n        /* \"#utility.yul\":3737:3814   */\n    tag_40:\n        /* \"#utility.yul\":3774:3781   */\n      0x00\n        /* \"#utility.yul\":3803:3808   */\n      dup2\n        /* \"#utility.yul\":3792:3808   */\n      swap1\n      pop\n        /* \"#utility.yul\":3737:3814   */\n      swap2\n      swap1\n      pop\n      jump\t// out\n        /* \"#utility.yul\":3820:3938   */\n    tag_41:\n        /* \"#utility.yul\":3907:3931   */\n      tag_71\n        /* \"#utility.yul\":3925:3930   */\n      dup2\n        /* \"#utility.yul\":3907:3931   */\n      tag_40\n      jump\t// in\n    tag_71:\n        /* \"#utility.yul\":3902:3905   */\n      dup3\n        /* \"#utility.yul\":3895:3932   */\n      mstore\n        /* \"#utility.yul\":3820:3938   */\n      pop\n      pop\n      jump\t// out\n        /* \"#utility.yul\":3944:4276   */\n    tag_28:\n        /* \"#utility.yul\":4065:4069   */\n      0x00\n        /* \"#utility.yul\":4103:4105   */\n      0x40\n        /* \"#utility.yul\":4092:4101   */\n      dup3\n        /* \"#utility.yul\":4088:4106   */\n      add\n        /* \"#utility.yul\":4080:4106   */\n      swap1\n      pop\n        /* \"#utility.yul\":4116:4187   */\n      tag_73\n        /* \"#utility.yul\":4184:4185   */\n      0x00\n        /* \"#utility.yul\":4173:4182   */\n      dup4\n        /* \"#utility.yul\":4169:4186   */\n      add\n        /* \"#utility.yul\":4160:4166   */\n      dup6\n        /* \"#utility.yul\":4116:4187   */\n      tag_39\n      jump\t// in\n    tag_73:\n        /* \"#utility.yul\":4197:4269   */\n      tag_74\n        /* \"#utility.yul\":4265:4267   */\n      0x20\n        /* \"#utility.yul\":4254:4263   */\n      dup4\n        /* \"#utility.yul\":4250:4268   */\n      add\n        /* \"#utility.yul\":4241:4247   */\n      dup5\n        /* \"#utility.yul\":4197:4269   */\n      tag_41\n      jump\t// in\n    tag_74:\n        /* \"#utility.yul\":3944:4276   */\n      swap4\n      swap3\n      pop\n      pop\n      pop\n      jump\t// out\n\n    auxdata: 0xa26469706673582212209897f6e835f125f99be595f6cda465755ed9f9e237f939e3aa7cd2ed0e245d3764736f6c634300081a0033\n}\n",
				"bytecode": {
					"linkReferences": {},
					"object": "6080604052348015600e575f80fd5b50335f806101000a81548173ffffffffffffffffffffffffffffffffffffffff021916908373ffffffffffffffffffffffffffffffffffffffff1602179055505f8060146101000a81548160ff02191690836001811115606f57606e6078565b5b021790555060a5565b7f4e487b71000000000000000000000000000000000000000000000000000000005f52602160045260245ffd5b6103e8806100b25f395ff3fe60806040526004361061001d575f3560e01c806305a8da7214610021575b5f80fd5b61002961002b565b005b5f600181111561003e5761003d6101e6565b5b5f60149054906101000a900460ff16600181111561005f5761005e6101e6565b5b1461009f576040517f08c379a00000000000000000000000000000000000000000000000000000000081526004016100969061026d565b60405180910390fd5b671bc16d674ec80000803410156100eb576040517f08c379a00000000000000000000000000000000000000000000000000000000081526004016100e2906102d5565b60405180910390fd5b60015f60146101000a81548160ff021916908360018111156101105761010f6101e6565b5b02179055505f805f8054906101000a900473ffffffffffffffffffffffffffffffffffffffff1673ffffffffffffffffffffffffffffffffffffffff163460405161015a90610320565b5f6040518083038185875af1925050503d805f8114610194576040519150601f19603f3d011682016040523d82523d5f602084013e610199565b606091505b509150915060016101a8575f80fd5b7fba951166d42eb077151bdecb7cf6027562f04f0143b0c141b1bb0a33eef5d69333346040516101d992919061038b565b60405180910390a1505050565b7f4e487b71000000000000000000000000000000000000000000000000000000005f52602160045260245ffd5b5f82825260208201905092915050565b7f43757272656e746c79204f6363757069656400000000000000000000000000005f82015250565b5f610257601283610213565b915061026282610223565b602082019050919050565b5f6020820190508181035f8301526102848161024b565b9050919050565b7f6e6f7420656e6f7567682065746865722070726f7669646564000000000000005f82015250565b5f6102bf601983610213565b91506102ca8261028b565b602082019050919050565b5f6020820190508181035f8301526102ec816102b3565b9050919050565b5f81905092915050565b50565b5f61030b5f836102f3565b9150610316826102fd565b5f82019050919050565b5f61032a82610300565b9150819050919050565b5f73ffffffffffffffffffffffffffffffffffffffff82169050919050565b5f61035d82610334565b9050919050565b61036d81610353565b82525050565b5f819050919050565b61038581610373565b82525050565b5f60408201905061039e5f830185610364565b6103ab602083018461037c565b939250505056fea26469706673582212209897f6e835f125f99be595f6cda465755ed9f9e237f939e3aa7cd2ed0e245d3764736f6c634300081a0033",
					"opcodes": "PUSH1 0x80 PUSH1 0x40 MSTORE CALLVALUE DUP1 ISZERO PUSH1 0xE JUMPI PUSH0 DUP1 REVERT JUMPDEST POP CALLER PUSH0 DUP1 PUSH2 0x100 EXP DUP2 SLOAD DUP2 PUSH20 0xFFFFFFFFFFFFFFFFFFFFFFFFFFFFFFFFFFFFFFFF MUL NOT AND SWAP1 DUP4 PUSH20 0xFFFFFFFFFFFFFFFFFFFFFFFFFFFFFFFFFFFFFFFF AND MUL OR SWAP1 SSTORE POP PUSH0 DUP1 PUSH1 0x14 PUSH2 0x100 EXP DUP2 SLOAD DUP2 PUSH1 0xFF MUL NOT AND SWAP1 DUP4 PUSH1 0x1 DUP2 GT ISZERO PUSH1 0x6F JUMPI PUSH1 0x6E PUSH1 0x78 JUMP JUMPDEST JUMPDEST MUL OR SWAP1 SSTORE POP PUSH1 0xA5 JUMP JUMPDEST PUSH32 0x4E487B7100000000000000000000000000000000000000000000000000000000 PUSH0 MSTORE PUSH1 0x21 PUSH1 0x4 MSTORE PUSH1 0x24 PUSH0 REVERT JUMPDEST PUSH2 0x3E8 DUP1 PUSH2 0xB2 PUSH0 CODECOPY PUSH0 RETURN INVALID PUSH1 0x80 PUSH1 0x40 MSTORE PUSH1 0x4 CALLDATASIZE LT PUSH2 0x1D JUMPI PUSH0 CALLDATALOAD PUSH1 0xE0 SHR DUP1 PUSH4 0x5A8DA72 EQ PUSH2 0x21 JUMPI JUMPDEST PUSH0 DUP1 REVERT JUMPDEST PUSH2 0x29 PUSH2 0x2B JUMP JUMPDEST STOP JUMPDEST PUSH0 PUSH1 0x1 DUP2 GT ISZERO PUSH2 0x3E JUMPI PUSH2 0x3D PUSH2 0x1E6 JUMP JUMPDEST JUMPDEST PUSH0 PUSH1 0x14 SWAP1 SLOAD SWAP1 PUSH2 0x100 EXP SWAP1 DIV PUSH1 0xFF AND PUSH1 0x1 DUP2 GT ISZERO PUSH2 0x5F JUMPI PUSH2 0x5E PUSH2 0x1E6 JUMP JUMPDEST JUMPDEST EQ PUSH2 0x9F JUMPI PUSH1 0x40 MLOAD PUSH32 0x8C379A000000000000000000000000000000000000000000000000000000000 DUP2 MSTORE PUSH1 0x4 ADD PUSH2 0x96 SWAP1 PUSH2 0x26D JUMP JUMPDEST PUSH1 0x40 MLOAD DUP1 SWAP2 SUB SWAP1 REVERT JUMPDEST PUSH8 0x1BC16D674EC80000 DUP1 CALLVALUE LT ISZERO PUSH2 0xEB JUMPI PUSH1 0x40 MLOAD PUSH32 0x8C379A000000000000000000000000000000000000000000000000000000000 DUP2 MSTORE PUSH1 0x4 ADD PUSH2 0xE2 SWAP1 PUSH2 0x2D5 JUMP JUMPDEST PUSH1 0x40 MLOAD DUP1 SWAP2 SUB SWAP1 REVERT JUMPDEST PUSH1 0x1 PUSH0 PUSH1 0x14 PUSH2 0x100 EXP DUP2 SLOAD DUP2 PUSH1 0xFF MUL NOT AND SWAP1 DUP4 PUSH1 0x1 DUP2 GT ISZERO PUSH2 0x110 JUMPI PUSH2 0x10F PUSH2 0x1E6 JUMP JUMPDEST JUMPDEST MUL OR SWAP1 SSTORE POP PUSH0 DUP1 PUSH0 DUP1 SLOAD SWAP1 PUSH2 0x100 EXP SWAP1 DIV PUSH20 0xFFFFFFFFFFFFFFFFFFFFFFFFFFFFFFFFFFFFFFFF AND PUSH20 0xFFFFFFFFFFFFFFFFFFFFFFFFFFFFFFFFFFFFFFFF AND CALLVALUE PUSH1 0x40 MLOAD PUSH2 0x15A SWAP1 PUSH2 0x320 JUMP JUMPDEST PUSH0 PUSH1 0x40 MLOAD DUP1 DUP4 SUB DUP2 DUP6 DUP8 GAS CALL SWAP3 POP POP POP RETURNDATASIZE DUP1 PUSH0 DUP2 EQ PUSH2 0x194 JUMPI PUSH1 0x40 MLOAD SWAP2 POP PUSH1 0x1F NOT PUSH1 0x3F RETURNDATASIZE ADD AND DUP3 ADD PUSH1 0x40 MSTORE RETURNDATASIZE DUP3 MSTORE RETURNDATASIZE PUSH0 PUSH1 0x20 DUP5 ADD RETURNDATACOPY PUSH2 0x199 JUMP JUMPDEST PUSH1 0x60 SWAP2 POP JUMPDEST POP SWAP2 POP SWAP2 POP PUSH1 0x1 PUSH2 0x1A8 JUMPI PUSH0 DUP1 REVERT JUMPDEST PUSH32 0xBA951166D42EB077151BDECB7CF6027562F04F0143B0C141B1BB0A33EEF5D693 CALLER CALLVALUE PUSH1 0x40 MLOAD PUSH2 0x1D9 SWAP3 SWAP2 SWAP1 PUSH2 0x38B JUMP JUMPDEST PUSH1 0x40 MLOAD DUP1 SWAP2 SUB SWAP1 LOG1 POP POP POP JUMP JUMPDEST PUSH32 0x4E487B7100000000000000000000000000000000000000000000000000000000 PUSH0 MSTORE PUSH1 0x21 PUSH1 0x4 MSTORE PUSH1 0x24 PUSH0 REVERT JUMPDEST PUSH0 DUP3 DUP3 MSTORE PUSH1 0x20 DUP3 ADD SWAP1 POP SWAP3 SWAP2 POP POP JUMP JUMPDEST PUSH32 0x43757272656E746C79204F636375706965640000000000000000000000000000 PUSH0 DUP3 ADD MSTORE POP JUMP JUMPDEST PUSH0 PUSH2 0x257 PUSH1 0x12 DUP4 PUSH2 0x213 JUMP JUMPDEST SWAP2 POP PUSH2 0x262 DUP3 PUSH2 0x223 JUMP JUMPDEST PUSH1 0x20 DUP3 ADD SWAP1 POP SWAP2 SWAP1 POP JUMP JUMPDEST PUSH0 PUSH1 0x20 DUP3 ADD SWAP1 POP DUP2 DUP2 SUB PUSH0 DUP4 ADD MSTORE PUSH2 0x284 DUP2 PUSH2 0x24B JUMP JUMPDEST SWAP1 POP SWAP2 SWAP1 POP JUMP JUMPDEST PUSH32 0x6E6F7420656E6F7567682065746865722070726F766964656400000000000000 PUSH0 DUP3 ADD MSTORE POP JUMP JUMPDEST PUSH0 PUSH2 0x2BF PUSH1 0x19 DUP4 PUSH2 0x213 JUMP JUMPDEST SWAP2 POP PUSH2 0x2CA DUP3 PUSH2 0x28B JUMP JUMPDEST PUSH1 0x20 DUP3 ADD SWAP1 POP SWAP2 SWAP1 POP JUMP JUMPDEST PUSH0 PUSH1 0x20 DUP3 ADD SWAP1 POP DUP2 DUP2 SUB PUSH0 DUP4 ADD MSTORE PUSH2 0x2EC DUP2 PUSH2 0x2B3 JUMP JUMPDEST SWAP1 POP SWAP2 SWAP1 POP JUMP JUMPDEST PUSH0 DUP2 SWAP1 POP SWAP3 SWAP2 POP POP JUMP JUMPDEST POP JUMP JUMPDEST PUSH0 PUSH2 0x30B PUSH0 DUP4 PUSH2 0x2F3 JUMP JUMPDEST SWAP2 POP PUSH2 0x316 DUP3 PUSH2 0x2FD JUMP JUMPDEST PUSH0 DUP3 ADD SWAP1 POP SWAP2 SWAP1 POP JUMP JUMPDEST PUSH0 PUSH2 0x32A DUP3 PUSH2 0x300 JUMP JUMPDEST SWAP2 POP DUP2 SWAP1 POP SWAP2 SWAP1 POP JUMP JUMPDEST PUSH0 PUSH20 0xFFFFFFFFFFFFFFFFFFFFFFFFFFFFFFFFFFFFFFFF DUP3 AND SWAP1 POP SWAP2 SWAP1 POP JUMP JUMPDEST PUSH0 PUSH2 0x35D DUP3 PUSH2 0x334 JUMP JUMPDEST SWAP1 POP SWAP2 SWAP1 POP JUMP JUMPDEST PUSH2 0x36D DUP2 PUSH2 0x353 JUMP JUMPDEST DUP3 MSTORE POP POP JUMP JUMPDEST PUSH0 DUP2 SWAP1 POP SWAP2 SWAP1 POP JUMP JUMPDEST PUSH2 0x385 DUP2 PUSH2 0x373 JUMP JUMPDEST DUP3 MSTORE POP POP JUMP JUMPDEST PUSH0 PUSH1 0x40 DUP3 ADD SWAP1 POP PUSH2 0x39E PUSH0 DUP4 ADD DUP6 PUSH2 0x364 JUMP JUMPDEST PUSH2 0x3AB PUSH1 0x20 DUP4 ADD DUP5 PUSH2 0x37C JUMP JUMPDEST SWAP4 SWAP3 POP POP POP JUMP INVALID LOG2 PUSH5 0x6970667358 0x22 SLT KECCAK256 SWAP9 SWAP8 0xF6 0xE8 CALLDATALOAD CALL 0x25 0xF9 SWAP12 0xE5 SWAP6 0xF6 0xCD LOG4 PUSH6 0x755ED9F9E237 0xF9 CODECOPY 0xE3 0xAA PUSH29 0xD2ED0E245D3764736F6C634300081A0033000000000000000000000000 "
				},
				"gasEstimates": {
					"creation": {
						"codeDepositCost": "200000",
						"executionCost": "48856",
						"totalCost": "248856"
					},
					"external": {
						"book()": "infinite"
					}
				},
				"methodIdentifiers": {
					"book()": "05a8da72"
				}
			},
			"storageLayout": {
				"storage": [
					{
						"astId": 9,
						"contract": "contracts/HotelRoom.sol:HotelRoom",
						"label": "owner",
						"offset": 0,
						"slot": "0",
						"type": "t_address_payable"
					},
					{
						"astId": 32,
						"contract": "contracts/HotelRoom.sol:HotelRoom",
						"label": "currentStatus",
						"offset": 20,
						"slot": "0",
						"type": "t_enum(Statuses)29"
					}
				],
				"types": {
					"t_address_payable": {
						"encoding": "inplace",
						"label": "address payable",
						"numberOfBytes": "20"
					},
					"t_enum(Statuses)29": {
						"encoding": "inplace",
						"label": "enum HotelRoom.Statuses",
						"numberOfBytes": "1"
					}
				}
			},
			"userdoc": {
				"kind": "user",
				"methods": {},
				"version": 1
			}
		}
	}
}